:100000000C942A000C943F000C943F000C943F0089
:100010000C943F000C943F000C943F000C943F0064
:100020000C943F000C943F000C943F000C943F0054
:100030000C943F000C943F000C943F000C943F0044
:100040000C943F000C943F000C943F000C943F0034
:100050000C943F0011241FBECFE5D8E0DEBFCDBF1A
:1000600010E0A0E6B0E0E4EEF4E002C005900D92EE
:10007000AC3BB107D9F70E9441000C9470020C947C
:100080000000CF93DF93CDB7DEB76B970FB6F89430
:10009000DEBF0FBECDBF0E9462010E94C30181E698
:1000A00090E00E94F8016FEFCE0145960E941E027B
:1000B00063E870E0CE0145960E946702892B09F043
:1000C0005BC08AE890E00E94F8018EE890E00E9410
:1000D000F8016FEFCE0102960E941E029A819D30B8
:1000E00071F180E010E09133F9F4811102C01058F1
:1000F0001BC0813011F4105C17C0823011F4105E07
:1001000013C0833011F4105F0FC0843011F4185FF6
:100110000BC0853011F41C5F07C0863011F41E5FE0
:1001200003C0873009F41F5F8F5FE2E0F0E0EC0F5F
:10013000FD1FE80FF11D90819D30A9F601C010E070
:100140008AE890E00E94F80183EA90E00E94F801BA
:10015000CE0144960E94E8016C89812F90E00E94B4
:1001600013018FE39CE90197F1F700C000008DE0D7
:1001700090E00E94DB0193CF65EB70E0CE014596E5
:100180000E946702892B09F08ACF8AE890E00E94DA
:10019000F8018EE890E00E94F8016FEFCE010B9617
:1001A0000E941E022B852D3071F190E080E02133FA
:1001B000F9F4911102C080581BC0913011F4805C99
:1001C00017C0923011F4805E13C0933011F4805F39
:1001D0000FC0943011F4885F0BC0953011F48C5F20
:1001E00007C0963011F48E5F03C0973009F48F5F1B
:1001F0009F5FEBE0F0E0EC0FFD1FE90FF11D2081A8
:100200002D30A9F601C080E0BE016F5F7F4F90E006
:100210000E943201898190E00E94DB018DE090E034
:100220000E94DB013CCF1F93CF93DF93EC01162F8D
:100230000E947101CE0188279770880F892F881F2F
:10024000990B9195806A0E9481018C2F0E949B01DD
:10025000812F0E949B010E947D0180E0DF91CF9160
:100260001F910895EF92FF920F931F93CF938C01EC
:100270007B0188279770880F892F881F990B91958C
:10028000C82FC06A0E9471018C2F0E948101802FAB
:100290000E949B010E94B70181E08C0F0E948E0199
:1002A0008FE19EE40197F1F700C00000C7010E94B2
:1002B000A8010E947D0180E0CF911F910F91FF90D6
:1002C000EF90089560E470E080E090E020E030E09E
:1002D000A9010E94450220B986B7846086BF80E0EC
:1002E000089584EA86BF06B607FEFDCF91B1987FD8
:1002F00081E0983009F480E0089584E986BF80E0C9
:10030000089583B984E886BF06B607FEFDCF91B194
:10031000987F81E0983109F480E0089583B984E8FA
:1003200086BF06B607FEFDCF91B1987F81E090347D
:1003300009F480E0089583B984E886BF06B607FE15
:10034000FDCF91B1987F81E0983209F480E0089563
:1003500024E826BF06B607FEFDCF23B1FC012083AB
:1003600091B1987F81E0983509F480E0089584EA9E
:1003700086BF06B607FEFDCF91B1987F81E0903130
:1003800009F480E0089510BC83E389B988E18AB953
:1003900080B5846080BD80B5826080BD80B58F7D72
:1003A00080BD80B58F7E80BD80B5877F80BD109277
:1003B000600080E00895982F80916000813039F0CE
:1003C000109260005D9BFECF9CB980916000089503
:1003D000FC0180916000813051F0109260005F9BC1
:1003E000FECF2CB130E031832083809160000895EE
:1003F000EF92FF920F931F93CF93DF937C01809135
:1004000060008130A1F010926000E7018FEFE80EEC
:10041000F11C8E01899190E00E94DB01F80190812E
:100420009D3019F0CE15DF05A1F780916000DF91B6
:10043000CF911F910F91FF90EF9008950F931F930D
:10044000CF93DF93209160002130C9F010926000BB
:10045000662399F0EC016150062F10E00F5F1F4FEB
:10046000080F191FCE010E94E80199919D3029F0D3
:100470009A3019F0C017D107A9F720916000822F98
:10048000DF91CF911F910F910895A1E21A2EAA1B1F
:10049000BB1BFD010DC0AA1FBB1FEE1FFF1FA21734
:1004A000B307E407F50720F0A21BB30BE40BF50B31
:1004B000661F771F881F991F1A9469F760957095BA
:1004C000809590959B01AC01BD01CF010895FB0182
:1004D000DC018D91019080190110D9F3990B0895D9
:0404E000F894FFCFBE
:1004E40001456E746572206120636F6D6D616E6489
:1004F400202852454144202C205752495445293A3A
:10050400200D0057524954450D004F4B0D00456EC8
:100514007465722074686520616464726573732005
:100524003A0D00456E7465722074686520646174C8
:0C053400613A200D00524541440D0000CA
:00000001FF
